:0400000080310A2819
:100008007E1480318B318D237E10090080310C28BD
:1000180050308400003085000F3086314E26803104
:10002800A830840000308500363086314E26803175
:1000380021308400013085000C3086314E26803115
:100048007E102000272800307E218031F121803168
:10005800D8218031312080312E28203020005B02C9
:10006800031C08003D008E1C43280130942A200000
:1000780053082100C500200052082100C4002000B8
:10008800530821004506031D4D2820005208210071
:100098004406031D3B284508EC004408EB004208D1
:1000A800EB024308EC3BEC1F65284508EC004408CC
:1000B800EB004208EB024308EC3BFF30EB077F30D4
:1000C800EC3D6C08803AE90093306902031D6E2804
:1000D80089306B02031C772821004408783EC2004F
:1000E800EC30453DC300210034083504031982284B
:1000F8003408860035088700811BD6280830DE01C1
:10010800DF01E000A030E1016C218031EA01ED015E
:100118006D08A03E860087016D08213E84000130ED
:1001280085000008010603199C28EA01EA0AA128AB
:100138000830ED0A6D02031C8C2846084704031991
:10014800B4286C08803AE9004708803A6902031D20
:10015800AF2846086B02031CB4282100EA01EA0A0A
:1001680021006A0BD628A030860021308701840040
:10017800013085000830E90016001A00E90BC02894
:10018800A030DE01DE0ADF000830E001E1000130C6
:10019800F02080315F08B5005E08B4004508C30050
:1001A8004408C200360837040319E02836088600D8
:1001B80037088700811B0800652180312100203025
:1001C800DE01DF000130E000E101E10AF0205F0814
:1001D800B7005E08B6000800E6005E080319FC28B0
:1001E8006635B83E86008701403FE700413F032956
:1001F8006635BC3E86008701403FE700413FE80086
:100208006704031D0A29DE01DF0108005F08E20018
:100218007F306005E3006708860068088700423180
:100228006208C03F6308C13F6708013EE200003032
:10023800683DE30062088600630887006108810062
:1002480067088600680887004030810567088600CF
:100258006808870081156708860068088700811785
:100268005E0803194C296635B83E86008701403F71
:10027800E200413FE30004306206E4006308E50061
:100288006635B83E86006408C03F6508C13F6029EE
:100298006635BC3E86008701403FE200413FE300EF
:1002A80004306206E4006308E5006635BC3E86005B
:1002B8006408C03F6508C13F6808DF006708DE00C2
:1002C80008002200A01C6A2902307F2A02306A2A0C
:1002D800E300E2000130E0020030E13B600F7729E3
:1002E800610A031908006208860087015E08810018
:1002F800E20A6E292100DF00003A03198A29013A2F
:1003080003199D29033A03199D299D29FC30990059
:10031800903027009B000130C52180310230C52173
:10032800803101309E21803102309E21803103309E
:100338009E290800DE00BA2995130D1724000D1711
:100348002100D201D30108008D1623008D1224004C
:100358008D162100D001D10108000D1623000D12C1
:1003680024000D162100CE01CF0108005E0884008C
:10037800043004020318080083310435E53E820086
:1003880008002100DE00CC290E1308000E11080019
:100398005E08003A0319D729013A0319C829033A14
:1003A8000319CA29D72908005B08031D08003D0066
:1003B8008E019201163091009F3097007B30920099
:1003C800210012150B178B173D008E19ED298E157C
:1003D800E82901302000DB00080012113D009301DC
:1003E800900198010E302100DF009930DE00E00115
:1003F8005E0886005F0887008101DE0A0319DF0AAC
:10040800E00A0319FC2916303D0091009F3097003F
:100418007B3092002100E101610809070907203EAD
:10042800860000308701C03FC13FC23FC33F08304C
:10043800E10A6102031C102A3D000E1796010E12F4
:100448000E1390112100B101AA01AB01AC013D00CE
:100458009019252A01302100D800D700D601D501EE
:10046800DA01E1016135B83E860000308701C03FFE
:10047800C13F6135BC3E86000030C03FC13F6108C6
:10048800CA3E860081016108C83E860002308101AB
:10049800E10A6102031C362A2830B8001630B90177
:1004A8003D0098002000A3014030A2000830A100C0
:1004B8000430A000A017DE012200A901AA01AB01A7
:1004C800AC012100D4012000DB0108002100DE007E
:1004D800732A22000E13080022000E1108005E087D
:1004E800003A03197E2A013A03196D2A033A0319BF
:1004F800702A7E2A08002100DE00882A22000E17B2
:10050800080022000E1508005E08003A0319932A15
:10051800013A0319822A033A0319852A932A080003
:100528002100DF00BC2A5308803ADE0080305E02DA
:10053800031DA02A02305202031801340034510866
:10054800803ADE0080305E02031DAC2A0230500281
:100558000318013400344F08803ADE0080305E0210
:10056800031DB82A02304E02031801340034003447
:100578005F08840004300402031800348331043512
:10058800ED3E820008002100F430B401B501C60038
:100598000130C7002000530821004306031DD82A54
:1005A80020005208210042060319E32A20005308BC
:1005B8002100C300200052082100C200CE2A1E30AC
:1005C800F4000130F62282312030F001F1000130D0
:1005D800F200F301F30A402371082100B700700804
:1005E800B6000800F900741DFC2AF00113238231BB
:1005F800F41C022BF001F00A790813237908983EBD
:10060800F5000E30F601F63D7508F7007608F8009B
:100618007708860078088700740881000800F200CF
:100628002030F3007008F100F13572080907090756
:10063800710709070907F307730886008701811303
:100648007008031D2F2B7235BC3E86007308C03F0F
:100658000030C13F372B7235B83E860087017308DA
:10066800C03F0030C13F730886008701011373083B
:10067800043E860001170800F800700803194C2B87
:100688007835B83E86008701403FF900413F532B3B
:100698007835BC3E86008701403FF900413FFA00AB
:1006A8007904031D5A2BF001F10108007108F400C8
:1006B8007F307205F500790886007A088700423194
:1006C8007408C03F7508C13F7908013EF400003046
:1006D8007A3DF50074088600750887007308810064
:1006E800790886007A0887004030810579088600F5
:1006F8007A0887008115790886007A0887008117AB
:10070800700803199C2B7835B83E86008701403F56
:10071800F400413FF50004307406F6007508F70050
:100728007835B83E86007608C03F7708C13FB02BC1
:100738007835BC3E86008701403FF400413FF50014
:1007480004307406F6007508F7007835BC3E86005C
:100758007608C03F7708C13F7A08F1007908F000B1
:1007680008008831772888317828883164288831CA
:100778007828883164288831652888316B28883141
:100788008D2888316D2888316C28883179288831FE
:100798008328883164288631202E8531EA2D8631D8
:1007A800002E8631202E8631202E8631202E86314D
:1007B800202E8631202E8531E92D8531F52D863183
:1007C8000B2E8131C4298131A0298131A829813199
:1007D800B1298231BB2A8231972A8231A32A8231F8
:1007E800AF2A8E31122E8D31EB2D8D31F42D8D31B6
:0207F800FE2DD4
:100800008C31512C8C31672C8C31532C8C31672CD2
:100810008C31672C8C31672C8C31672C8C31672C98
:100820008C31672C8C31672C8C31672C8C31672C88
:100830008C31672C8C31672C8C31672C8C31672C78
:100840008C31672C8C31672C8C31672C8C31672C68
:100850008C31672C8C31672C8C31672C8C31672C58
:100860008C31672C8C31672C8C31672C8C31672C48
:100870008C31672C8C31672C8C31672C8C31672C38
:100880008C31672C8C31672C8C31672C8C31672C28
:100890008C31672C8C31672C8C31672C8C31672C18
:1008A0008C31672C8C31672C8C31672C8C31672C08
:1008B0008C31672C8C31672C8C31672C8C31672CF8
:1008C0008C31672C8C31672C8C31672C8C31672CE8
:1008D0008C31672C8C31672C8C31672C8C31672CD8
:1008E0008C31672C8C31672C8C31672C8C31672CC8
:1008F0008C31672C8C31672C8C31672C8C31672CB8
:100900008C31672C8C31672C8C31672C8C31672CA7
:100910008C31672C8C31672C8C31672C8C31672C97
:100920008C31672C8C31672C8C31672C8C31672C87
:100930008C31672C8C31672C8C31672C8C31672C77
:100940008C31672C8C31672C8C31672C8C31672C67
:100950008C31672C8C31672C8C31672C8C31672C57
:100960008C31672C8C31672C8C31672C8C31672C47
:100970008C31672C8C31672C8C31672C8C31672C37
:100980008C31672C8C31672C8C31672C8C31672C27
:100990008C31672C8C31672C8C31672C8C31672C17
:1009A0008C31672C8C31672C8C31672C8C31672C07
:1009B0008C31672C8C31672C8C31672C8C31672CF7
:1009C0008C31672C8C31672C8C31352C8C314C2C34
:1009D0008C31472C02305806031DEF2C1B2DD801FB
:1009E00021005908031D192D20005008013EF60072
:1009F0000030513DF7007608860077088700083000
:100A000081004030F600F701500886005108870049
:100A100042317608C03F7708C13F50088600510830
:100A200087000C308100500886005108870081172C
:100A30000800D90108005A0886008701413FF500E7
:100A4000F200F301730821002C02031D292D720806
:100A50002B0203182D2D2B08F5007508AB02031C83
:100A6000AC03F401750874020318422D28088600AF
:100A700087017408483E8400850100088100A80AA7
:100A8000F40A322D2B082C0403197B2D200050086A
:100A9000013EF2000030513DF300720886007308F9
:100AA0008700083081004830F200F30150088600CA
:100AB0005108870042317208C03F7308C13F5A088D
:100AC000860087015008011B702D860051088700A1
:100AD00048308100500886005108870081170800BF
:100AE00086005108870008308100500886005108B0
:100AF00087008117080020005008013EF2000030F6
:100B0000513DF300720886007308870008308100A9
:100B10004030F200F301500886005108870042314E
:100B20007208C03F7308C13F500886005108870013
:100B30000430810050088600510887008117210089
:100B40002D082E040319AD2D0530A83E860087011F
:100B5000413F8A00403F0A0085312100AA1320004E
:100B60005408031D08008C31D32C40081F39013A6A
:100B7000031D08004408031D080006304106031940
:100B8000D62DE12D5E0BE12D85302100AF00903098
:100B9000B0000930D12D00302100AF009030B000FE
:100BA0003F30B200B301C030B100E12D4308213A1B
:100BB0000319C22D033A0319CB2D013A0319E12D74
:100BC000E12D2000400E890C0339013A031D080075
:100BD000132E2A2EDD302100AF000030B00001308E
:100BE000B200B301C130B100080080302100B10073
:100BF000200043082100DD00F00020004208212EE3
:100C0000DC302100AF000030B0000130B200B30191
:100C10008130B100080080302100B100200042087E
:100C20002100DC0008004108FF3E031C080084008E
:100C30000B3004020318080083310435CF3E8200D4
:100C40000800F1007108031D080070082100C600AB
:100C5000C701080048302100A8000830AB00AC01F3
:100C60000830AE001330AD00AA1708008D31492DB1
:100C70008D31502D8D31582D8D31602D8D31702D50
:100C80008D31772D8D317F2D8D31872D8D31972DA4
:100C90008D31A12D8D31AD2D8D31B52D64008001AB
:080CA0000131890B4F2E0034D5
:10102600200048082200A00019200800A01C1E2845
:101036000230BF2408000230AB2408002000D9018A
:10104600D4012100D601D501D9012000D801210003
:101056003808860039088700043081133806B8003E
:10106600860039088700043081133806B80020004E
:10107600500886005108870081132100B101B20192
:10108600B301AA01AB01AC01542088310330200022
:10109600DF00E001E101E201E301E4012D248831F2
:1010A600BB292000400E890C0339031D08004108A6
:1010B60084000D3004020318080083310435B53E60
:1010C600820008002100B11708302000DB0008006C
:1010D600952850295E302100AF000030B000311451
:1010E6000130B200B11708000529902A44085D3E78
:1010F6002100AF00B00131140130B200B117080071
:101106002100B117200044085D3E86008701420891
:10111600810008000230DF00E001E101E201E301A5
:10112600E4012D2C803020004006031D0800C0304D
:101136002100B100F828B8302100AF009030B0008F
:101146001230B200B30108004208031DD32842083A
:10115600F000D430F101F035F10D700784009030C5
:10116600713D8500003F2100AF00013FB00030080F
:10117600F1002F08F000023E840071080318710A7E
:1011860085000008B2003008F1002F08F000033E89
:10119600840071080318710A85000008B30008006E
:1011A6002100B1010800033042020318F228420868
:1011B600F000CA30F101F035F10D7007840090306F
:1011C600713D8500003F2100AF00013FB0002F08B0
:1011D6008400300885000008B200B3010800210031
:1011E600B10108002100B101080020004308013ABE
:1011F60003199E28033A0319A728013A0319D6288A
:10120600F52808002000C801C9013B292100B117B3
:101216005B0B46292000C81446292100B117462930
:101226002100B1172000C41B222944080F390907E1
:10123600BC3E86008701403FF000413F2B29440811
:101246000F390907B83E86008701403FF000413F4D
:10125600F1007008860071088700811F4629700812
:10126600860071088700011D46290130C8004629FD
:1012760040081F3903190929013A03191029033AAD
:101286000319132946292100B11F08004830AF0071
:10129600B00131140230B20008002100B1170E303F
:1012A6002000E6009930E500E7016508860066083B
:1012B60087008101E50A0319E60AE70A0319582996
:1012C6002030F001F101F200F301A92188313D003F
:1012D6000E172000E8016808CA3E860087018101D2
:1012E6006808C83E860002308101E80A6802031CCD
:1012F6006E295D30F001F101F201F20AF301A92134
:1013060088313D000E1328302100B8002030B90185
:101316002000DA00D000FF39031D0030D10042085A
:10132600DE005E08031D9A291030DB0008005E30DF
:10133600DF01DF0AE001E1000030E200E301E30A39
:10134600E4012D2420302000DB000800F400F50025
:101356000130F2020030F33B720FB429730A03190D
:10136600080075088600870170088100F50AAB2918
:101376003D000E122100B11BFF29AA1FCE29023003
:101386002000D80021005508031DCA293822210053
:10139600D701D801080020005008013EF5000030B2
:1013A600513DF600750886007608870008308100F2
:1013B6004030F500F601500886005108870042319A
:1013C6007508C03F7608C13F50088600510887005F
:1013D6000C308100500886005108870081172100D3
:1013E60038088600390887000430810038088600EE
:1013F60039088700811708002000C01F122A013013
:10140600D80021005608031D0A2A382288312100F7
:10141600D701D80120005408031D0800D32C023040
:10142600D8005008013EF5000030513DF600750821
:10143600860076088700083081004030F500F60106
:10144600500886005108870042317508C03F76086B
:10145600C13F5008860051088700043081005008BB
:1014660086005108870081170A2AD601D501023065
:1014760020005806031D632A5008013EF300003081
:10148600513DF40073088600740887000830810017
:101496004830F300F40150088600510887004231B5
:1014A6007308C03F7408C13F500886005108870082
:1014B60048308100500886005108870081170800CF
:1014C6002100330820004702031D6D2A210032083F
:1014D600200046020318762A47082100B3002000A0
:1014E60046082100B200FA264830F300F401210034
:1014F600380886003908870042317308C03F7408EF
:10150600C13F38088600390887004830810038080E
:10151600860039088700811708002000420BA42A9C
:1015260040081F39031DA42A2100B11703302000EB
:101536004106031DA22A01302100DB00A42A210056
:10154600DB0120004208031D080040081F39023A4B
:10155600031D080044080F390319080044080F3911
:10156600FB0002307B020318080020305B06031DD7
:1015760008002100B1172000C41BCF2A44080F39E8
:101586000907BC3E86008701403FE800413FE9006D
:1015960044080F39C83EDC2A44080F390907B83E0B
:1015A60086008701403FE800413FE90044080F39C3
:1015B600CA3E86000108E7006718EC2AFB30FB00EC
:1015C600FF30FC0068087B05E80069087C05E90037
:1015D600EF2A04306804E800C41BFC2A44080F39CB
:1015E6000907BC3E860087016808C03F6908C13FFD
:1015F600062B44080F390907B83E8600870168089C
:10160600C03F6908C13F03304106031D272B680808
:10161600860069088700811F1C2BC41B162B4408F3
:101626000F39C83E192B44080F39CA3E8600870178
:101636008114680886006908870001156808860015
:10164600690887008117080004306806E8008600EC
:10165600690887006808811F462B8600690887008D
:101666008113680886006908870005300117DF00C6
:10167600E0016908E2006808E1000230E300E401E5
:101686002D2488314A2B860069088700011704300B
:1016960020006806E800E718562B680886006908E7
:1016A6008700811F752BC41B5C2B44080F39C83E6D
:1016B6005F2B44080F39CA3E8600870181106808EF
:1016C6008600690887003B3081050530DF00E001B0
:1016D6006908E2006808E1000230E300E4012D2415
:1016E60088317B2B68088600690887003B308105B6
:1016F600200044080F39983EFB000E30FC01FC3DEB
:101706007B08E5007C08E600650886006608870019
:101716000110080020005B03031D9A2B3D008E1A62
:101726009A2B90011214121602302000DB003D00A5
:101736001019121DA12B1011722788313D008E1C25
:10174600A72B2000121108001018121CB32B892792
:1017560088312100121504302000DB003D001010F6
:10176600101A121EB82B782688313D00101FD52B73
:10177600121FC82B73302000DF00E001E101E201F7
:10178600E301E30AE4012D2488313D0010136626A7
:10179600883120005508031DD5035508031DD52B98
:1017A600D32488313D00901A921EDB2B52278831B4
:1017B6009018921CEC2BFF302000DF007F30E000F9
:1017C600E101E201E301E30AE4012D2488313D0051
:1017D6009301043020005B020318F32B121108005A
:1017E6003D00921D2A2C2000ED01272C0F08200019
:1017F600DC005C0CFD00FD0C7D0C0F39D6003D00B5
:10180600901120005C190A2C5608C83E0C2C56086C
:10181600CA3E86000130870181065608031D162C34
:1018260027268831212C7230DF005C30E001E10090
:101836000030E200E301E4012D2488312000043069
:10184600ED0A6D0203182A2C3D009019F92B200091
:10185600121108006008003A0319552C7F3A031943
:10186600622C672C68248831342588312000520A7E
:101876007F30031953060319442CD20A0319D30ADD
:101886000800D201D3010800682488310130C6253A
:101896000800682488310230C62508008231C72A2C
:1018A6008531B52D5F08FF3E031C080084007530A6
:1018B60004020318080084310435003E82005F08E4
:1018C600FF3A0319672C672C08003D008E1CA02CDC
:1018D6000130AB240800210040034104031D772C8E
:1018E6000130BF248831A62C4B3040064104031D2D
:1018F600802C0130AB248831A62C00304102973071
:1019060003194002031CA62CC001C101A62C21000C
:1019160040034104031D932C0130BF248831A62CBB
:10192600323040064104031D9C2C0130AB24883123
:10193600A62C03304102B730832C20005B08203AE6
:1019460003196E2C8A2C2100C00A0319C10A08004B
:10195600F000B32C22000E13080022000E1108001E
:101966007008003A0319BE2C013A0319AD2C033A4C
:101976000319B02CBE2C0800F000C72C22000E174D
:10198600080022000E1508007008003A0319D22C30
:10199600013A0319C12C033A0319C42CD22C0800AE
:1019A60021005808031D08000130D8005708031D00
:1019B60008000130D700023020005806031DF62C1F
:1019C600210038088600390887004131810138082E
:1019D60086003908870048308100380886003908B3
:1019E600870081170800580B08002100D901200044
:1019F6005A0A86000830870181004030F000F10164
:101A06005A08023E86007008C03F7108C13F5A0856
:101A16008600043081005A088600013081172100B3
:101A2600D90020005008013EF0000030513DF10081
:101A36007008860071088700083081004030F00089
:101A4600F101500886005108870042317008C03FF6
:101A56007108C13F50088600510887008030810018
:101A6600080021004D08803AF00080307002031D06
:101A76003E2D09304C020318452D2100CC0A0319CE
:101A8600CD0A08002100CC01CD01612D03102000F4
:101A96000D1F03140030093D5C2D20000D1F562D2F
:101AA6002100D2015E2D02305C2D20000D1F562D27
:101AB60003302100D200D301882D502D5308003A5F
:101AC6000319662D882D5208840004300402031879
:101AD600882D86310435363E8200031020008D1E87
:101AE60003140030093D832D20008D1E7D2D21001D
:101AF600D001852D0230832D20008D1E7D2D0330D3
:101B06002100D000D101B62D772D5108003A0319D6
:101B16008D2DB62D50088400043004020318B62D0E
:101B2600863104353E3E8200031020000D1E03144C
:101B36000030093D2100CE00CF01080020000D1E17
:101B4600A82D2100CE01CF01080002302100CE00D1
:101B5600CF01080020000D1EA82D03302100CE0065
:101B6600CF010800A12D4F08003A0319BB2DC52D42
:101B76004E08840004300402031808008631043538
:101B8600463E82000800F100DD2DFC302100990060
:101B9600903027009B00013013268831023013262F
:101BA60088310130E92588310230E9258831033052
:101BB600E92508007108003A0319C82D013A0319EE
:101BC600E82D033A0319E82DE82D0800F000082E49
:101BD600210095130D1724000D172100D201D30102
:101BE600080021008D1623008D1224008D16210079
:101BF600D001D101080021000D1623000D1224008A
:101C06000D162100CE01CF010800700884000430B3
:101C160004020318080083310435F53E82000800EB
:101C2600F0001B2E21000E13080021000E110800E3
:101C36007008003A0319262E013A0319152E033AA5
:101C46000319182E262E08002D30D5005C08FD3904
:101C5600031D5F2E5C363F3909070907203EDA006F
:101C6600D000FF39031D0030D10004305006D000EB
:101C76005A0886008701010C890C0F390D3A031D9D
:101C86005D2E4030860020005A08023E8400850101
:101C9600003FEA00013FEB006A0884006B088500FC
:101CA6000830EC006C0803195C2E12001E00EC0BC9
:101CB600582E21288431EA2CFD305C05EA00043ACE
:101CC600031D0800882E01302200A9070030AA3D16
:101CD600AB3DAC3D21005A08031D0800D40A540848
:101CE600031D0800FF30D4000800121510128E14D0
:101CF60001302100DA00D40175302000DF00E00158
:101D0600E101E201E301E4012D2C210038088600FF
:101D1600390887000030011B0130F5000430380611
:101D2600B800083020005B06031DA52E42087F3947
:101D36003D00960016080319A22E1030A32E04307B
:101D46002000DB00580BE52E4830F300F40121009B
:101D5600380886003908870042317308C03F740886
:101D6600C13FFA268831023020005906031DC82ECD
:101D760021003808860039088700043081003808B9
:101D8600860039088700811708007508031DD82EBC
:101D96002100380886003908870048308100380855
:101DA6008600390887008117080021003808860058
:101DB600390887000830810038088600390887000E
:101DC600811708002100AA1FF72E2D082E040319DB
:101DD600F52E0530A83E86008701413F8A00403F28
:101DE6000A008E312100AA132000D801080008300D
:101DF600F2000030210033020830031932020318C2
:101E0600102F3208F20020005908031D0C2F013054
:101E16000F2F590B102F0230D90072082100B20281
:101E2600031CB3033808013EF0000030393DF100D1
:101E3600700886007108870072088100483020000B
:101E4600D7002100311C392F4E2F2000570886005D
:101E5600870121002F0884003008850000088100D2
:101E6600AF0A0319B00A2000D70AF2037208031951
:101E76000800282F200057088600870121002F0818
:101E860084003008850000088100AF0A0319B00AF3
:101E96002000D70AF2037208031908003D2F181C08
:101EA600702F20005A088600803087010106031D26
:101EB6006E2F210038088600390887008430010615
:101EC600031D6E2F20005A0886000C308701810002
:101ED6005A08860081173D0018109012080021004C
:101EE600DA0174302000DF000030E001E101E20198
:101EF600E301E4012D2488313D008E101211101DDE
:101F0600862F1011822F2100D40108002100121102
:101F16003D009301900198010E30F1009930F000D8
:101F2600F20170088600710887008101F00A031922
:101F3600F10AF20A0319942F163091009F30970088
:101F46007B309200F301730809070907203E8600DB
:101F560000308701C03FC13FC23FC33F0830F30A8C
:101F66007302031CA62F0E1796010E120E13901164
:101F76002100B101AA01AB01AC013D009019BA2FB5
:101F860001302100D800D700D601D501DA01F301CE
:101F96007335B83E860000308701C03FC13F7335B8
:101FA600BC3E86000030C03FC13F7308CA3E860073
:101FB60081017308C83E860002308101F30A73026C
:101FC600031CCB2F28302100B8001630B9013D0084
:101FD60098002000A3014030A2000830A100043080
:101FE600A000A017DE012200A901AA01AB01AC01E5
:101FF6002100D4012000DB01080005340134093436
:102006000634A1340134053407341934E034293454
:10201600E7341534003425340134753401349534ED
:1020260008348134023495340134753408348134EB
:1020360003349534053475340134053408341934C1
:10204600013429340534913402349534013475341D
:102056000334913403349534063475340834153416
:1020660000342534653405340734193400342934F2
:10207600653481340034C034343403344D34003490
:102086006934003463340034723400346F340034FD
:1020960063340034683400346934003470340034F6
:1020A600203400345434003465340034633400344E
:1020B600683400346E3400346F3400346C340034C9
:1020C6006F340034673400347934003420340034FB
:1020D600493400346E340034633400342E34003412
:1020E6000934023429340034013401340034C03454
:1020F60032340934043400340034023403340134F5
:1021060001340034093421341134013400340134EB
:1021160022343F3400340734053481340334083420
:1021260000340134073405340134033408340034F0
:1021360001341C3403344B340034653400347934B0
:102146000034623400346F34003461340034723445
:1021560000346434003420340034443400346534AC
:1021660000346D3400346F340034123401340034DA
:1021760002340034003400340834D834043455347E
:102186000034013400340134023400340134D034D4
:1021960090343F3490349C349034043403340934FE
:0621A60004347334903490
:020000040001F9
:04000E00A4CFCFDFCD
:00000001FF
